:100000000C945C000C94E1010C94BA010C947900FE
:100010000C9479000C9479000C9479000C9479007C
:100020000C9479000C9479000C9479000C9479006C
:100030000C9479000C9479000C9479000C9479005C
:100040000C9470010C9479000C9479000C94790054
:100050000C9479000C9479000C9479000C9479003C
:100060000C9479000C947900000000002400270013
:100070002A0000000000250028002B0004040404CE
:100080000404040402020202020203030303030342
:10009000010204081020408001020408102001021F
:1000A00004081020000000080002010000030407FB
:1000B000000000000000000011241FBECFEFD8E0B8
:1000C000DEBFCDBF11E0A0E0B1E0EEE4F5E002C09C
:1000D00005900D92A430B107D9F721E0A4E0B1E07A
:1000E00001C01D92A031B207E1F70E9408020C94F2
:1000F000A5020C94000090E0FC01EC55FF4F249108
:10010000FC01E057FF4F3491FC01E458FF4FE491AC
:10011000EE23C9F0222339F0233001F1A8F4213075
:1001200019F1223029F1F0E0EE0FFF1FEE58FF4FDA
:10013000A591B4918FB7F894EC91611126C03095D8
:100140003E233C938FBF08952730A9F02830C9F093
:10015000243049F7809180008F7D03C0809180001A
:100160008F7780938000DFCF84B58F7784BDDBCF1E
:1001700084B58F7DFBCF8091B0008F778093B000E6
:10018000D2CF8091B0008F7DF9CF3E2BDACFCF93C5
:10019000DF9390E0FC01E057FF4F249184589F4F7C
:1001A000FC0184918823D1F090E0880F991FFC0115
:1001B000E859FF4FA591B491FC01EE58FF4FC5914E
:1001C000D49161110EC09FB7F8948C91E22FE09505
:1001D0008E238C932881E223E8839FBFDF91CF9108
:1001E00008958FB7F894EC91E22BEC938FBFF6CF84
:1001F0001F93CF93DF93182FEB0161E00E94C7009C
:10020000209739F460E0812FDF91CF911F910C94FA
:100210007B00CF3FD10511F461E0F5CFE12FF0E095
:10022000EC55FF4FE491E33031F140F4E130B1F0AF
:10023000E230E1F0C038D1057CF7E4CFE73029F1B6
:10024000E83059F1E430B1F780918000806280930A
:100250008000D0938B00C0938A0004C084B580686E
:1002600084BDC7BDDF91CF911F91089584B5806291
:1002700084BDC8BDF7CF80918000806880938000E6
:10028000D0938900C0938800EDCF8091B000806842
:100290008093B000C093B300E5CF8091B00080623E
:1002A0008093B000C093B400DDCF81E0809306015D
:1002B000089508950F931F93CF93DF938B01EA0165
:1002C000BC0189E00E94F800B8018AE00E94F800B1
:1002D000BE018BE0DF91CF911F910F910C94F8003C
:1002E0001F920F920FB60F9211242F933F938F936B
:1002F0009F93AF93BF9380910C0190910D01A091BA
:100300000E01B0910F0130910B0123E0230F2D3727
:1003100058F50196A11DB11D20930B0180930C018E
:1003200090930D01A0930E01B0930F0180910701EE
:1003300090910801A0910901B0910A010196A11DB7
:10034000B11D8093070190930801A0930901B09318
:100350000A01BF91AF919F918F913F912F910F9083
:100360000FBE0F901F90189526E8230F0296A11D2F
:10037000B11DD2CF1F920F920FB60F9211242F935F
:100380003F934F935F936F937F938F939F93AF931D
:10039000BF93EF93FF93E0910201F0910301099560
:1003A000FF91EF91BF91AF919F918F917F916F914D
:1003B0005F914F913F912F910F900FBE0F901F9023
:1003C00018951F920F920FB60F9211242F933F93FF
:1003D0004F935F936F937F938F939F93AF93BF934D
:1003E000EF93FF93E0910001F09101010995FF91D6
:1003F000EF91BF91AF919F918F917F916F915F919D
:100400004F913F912F910F900FBE0F901F90189515
:10041000789484B5826084BD84B5816084BD85B5DF
:10042000826085BD85B5816085BD80916E008160EB
:1004300080936E0010928100809181008260809391
:100440008100809181008160809381008091800093
:100450008160809380008091B10084608093B100BE
:100460008091B00081608093B00080917A008460B8
:1004700080937A0080917A00826080937A008091E4
:100480007A00816080937A0080917A0080688093FE
:100490007A001092C10061E089E00E94C70061E02B
:1004A0008AE00E94C70061E08BE00E94C70060E024
:1004B00082E00E94C70085E591E09093010180935E
:1004C000000180916900836080936900E89AC0E030
:1004D000D0E080910601882371F080910401909111
:1004E000050101968430910541F1909305018093B7
:1004F00004011092060180910401909105014FEFD3
:1005000050E070E060E00097E9F050E040E06FEF0D
:1005100070E08130910541F04FEF50E06FEF70E0F7
:10052000029781F470E060E08FEF90E00E945A0142
:10053000209779F20E940000CCCF10920501109212
:0E0540000401D7CF90E080E0F1CFF894FFCF18
:04054E0059015901F5
:00000001FF
